:02000004080AE8
:1000000000000A082C140A0800000600060005017A
:080010000402810C0000000055
:040018008C110A0835
:10001C0009480A4908B5884205D0094A824202D0EB
:10002C00121A00F0F9FF0748074A0021121A01F0D2
:10003C0001F8064808BD00BF0000002094130A0810
:10004C007000002070000020D1040020D10400209A
:10005C0070B500F029FC0025054E064CA41BA40825
:10006C00AC4200D170BD56F8043B98470135F7E718
:10007C006C130A0888130A0800F014B808B500F0CD
:10008C0019F8BDE8084000F0C7BB00F0E5BA00F075
:10009C00EBBA0078B0FA80F0400970470123037086
:1000AC0070470000024B0121188800F0F9BE00BF18
:1000BC000000002010B5A44C0121208800F001FFA5
:1000CC004FF4617000F068FB0021208800F0F9FE0D
:1000DC00C82000F061FB0121208800F0F2FE4FF4F3
:1000EC00617000F059FB0021208800F0EAFEC82066
:1000FC0000F052FB0021208800F0E3FE4FF47A70F0
:10010C0000F04AFB0121208800F0DBFE4FF49670D2
:10011C0000F042FB0021208800F0D3FEC82000F044
:10012C003BFB0021208800F0CCFE4FF47A7000F0ED
:10013C0033FB0121208800F0C4FE4FF4617000F005
:10014C002BFB0021208800F0BCFEC82000F024FB13
:10015C000121208800F0B5FE4FF4967000F01CFBD6
:10016C000021208800F0ADFEC82000F015FB002116
:10017C00208800F0A6FE4FF47A7000F00DFB0121F0
:10018C00208800F09EFE4FF4967000F005FB0021D5
:10019C00208800F096FEC82000F0FEFA012120888D
:1001AC0000F08FFE4FF4617000F0F6FA0021208809
:1001BC0000F087FEC82000F0EFFA0021208800F044
:1001CC0080FE4FF47A7000F0E7FA0121208800F0ED
:1001DC0078FE4FF4617000F0DFFA0021208800F007
:1001EC0070FEC82000F0D8FA0121208800F069FECA
:1001FC004FF4967000F0D0FA0021208800F061FED8
:10020C00C82000F0C9FA0121208800F05AFE4FF4F2
:10021C00617000F0C1FA0021208800F052FEC82065
:10022C0000F0BAFA0121208800F04BFE4FF49670D2
:10023C0000F0B2FA0021208800F043FEC82000F044
:10024C00ABFA0021208800F03CFE4FF47A7000F0ED
:10025C00A3FA0121208800F034FE4FF4967000F0D0
:10026C009BFA0021208800F02CFEC82000F094FAA4
:10027C000121208800F025FE4FF4967000F08CFAD6
:10028C000021208800F01DFEC82000F085FA012115
:10029C00208800F016FE4FF4967000F07DFA0021D5
:1002AC00208800F00EFEC82000F076FA012120888C
:1002BC0000F007FE4FF4967000F06EFA00212088D3
:1002CC0000F0FFFDC82000F067FA0021208800F044
:1002DC00F8FD4FF47A7000F05FFA0121208800F0ED
:1002EC00F0FD4FF4967000F057FA0021208800F0D2
:1002FC00E8FDC82000F050FA0021208800F0E1FD54
:10030C004FF47A7000F048FA0121208800F0D9FDF2
:10031C004FF4617000F040FA0021208800F0D1FD0C
:10032C00C82000F039FA0121208800F0CAFD4FF4F2
:10033C00617000F031FA2088002100F0C2FDBDE8A8
:10034C001040C82000F028BA0000002008B5024B6D
:10035C001B689B68019308BDB001060808B5024BE9
:10036C001B68DB68019308BDB001060808B5024B99
:10037C001B681B69019308BDB001060808B5024B48
:10038C001B685B68019308BD9C01060808B5024B0D
:10039C001B685B69019308BD9C01060808B5024BFC
:1003AC001B685B6C019308BDD001060808B5024BB5
:1003BC001B689B6C019308BDD001060808B5024B65
:1003CC001B685B6A019308BDC401060808B5024BA3
:1003DC001B689B6A019308BDC401060808B5024B53
:1003EC001B68DB6A019308BDC401060808B5024B03
:1003FC001B681B6B019308BDC401060808B5024BB2
:10040C001B685B6B019308BDC401060808B5024B61
:10041C001B689B6B019308BDC401060808B5024B11
:10042C001B681B6C019308BDC401060808B5024B80
:10043C001B681B6E019308BDC401060808B5024B6E
:10044C001B681B6E019308BDAC01060808B5024B76
:10045C001B685B6E019308BDAC01060808B5024B26
:10046C001B689B6E019308BDAC01060808B5024BD6
:10047C001B68DB6E019308BDAC01060808B5024B86
:10048C001B681B6F019308BDAC01060808B5024B35
:10049C001B685B6F019308BDAC01060808B5034BE4
:1004AC001B68D3F88030019308BD0000AC0106082E
:1004BC0008B5024B1B68DB69019308BDB401060843
:1004CC0008B5024B1B681B6A019308BDB4010608F2
:1004DC0008B5024B1B681B68019308BDD8010608C0
:1004EC0008B5024B1B681B69019308BDD8010608AF
:1004FC0008B5024B1B685B69019308BDD80106085F
:10050C0008B5024B1B689B69019308BDD80106080E
:10051C0008B5024B1B68DB69019308BDD8010608BE
:10052C0008B5024B1B681B6A019308BDD80106086D
:10053C0008B5024B1B689B6C019308BDC0010608F3
:10054C0008B5024B1B685B68019308BDA401060843
:10055C0008B5024B1B685B69019308BDA401060832
:10056C0008B5034B1B68D3F89030019308BD00000D
:10057C00A401060808B5034B1B68D3F89C30019303
:10058C0008BD0000A401060808B5024B1B685B6897
:10059C00019308BDC801060808B5024B1B689B688F
:1005AC00019308BDC801060808B5024B1B68DB683F
:1005BC00019308BDC801060808B5024B1B681B69EE
:1005CC00019308BDC801060808B5024B1B685B699E
:1005DC00019308BDC801060808B5024B1B689B694E
:1005EC00019308BDC801060808B5024B1B68DB69FE
:1005FC00019308BDC801060808B5024B1B681B6AAD
:10060C00019308BDC801060808B5024B1B681B6B9B
:10061C00019308BDC801060808B5024B1B685B6B4B
:10062C00019308BDC801060808B5024B1B681B6C7A
:10063C00019308BDC801060808B5024B1B685B6C2A
:10064C00019308BDC801060808B5024B1B68DB6B9B
:10065C00019308BDCC01060808B5024B1B681B684A
:10066C00019308BDA001060808B5024B1B685B6826
:10067C00019308BDA001060808B5024B1B681B6C52
:10068C00019308BDA001060808B5024B1B685B6C02
:10069C00019308BDA001060870B5002604460D465E
:1006AC0040F8086FFFF77AFE28462570FFF700FF29
:1006BC002046666070BD000002220020044B1A60C8
:1006CC00044B054AC3E900009A60FFF739BF00BF2D
:1006DC007C000020700000200000FFFFF8B50646EB
:1006EC000D4600248F18BD420CD0336830469B68F1
:1006FC0015F8011B9847031E01DB1C44F3E7002C83
:10070C0008BF1C462046F8BD70B505460C46084689
:10071C0049B100F0C5FC2B68024621462846BDE8CD
:10072C007040DB68184770BD03689B68184700234E
:10073C00012A98BF0A2230B58BB00C468DF82430B4
:10074C0009A92546B4FBF2F404FB1253DBB2092BC6
:10075C0094BF30333733DBB2AA4201F8013DF0D9F4
:10076C00FFF7D2FF0BB030BD002340681A46194684
:10077C00FFF72ABF014B024A1A6070478000002025
:10078C00A0110A08024B1A68024B1A60704700BF8E
:10079C0004000020840000200021FFF7D9BE0000D7
:1007AC000022014B9A60704788000020014B1860B2
:1007BC00704700BF0800002008B5134B43B100F090
:1007CC0071F903681B699847002801DDAFF30080BD
:1007DC000E4B43B100F0AAFB03681B699847002835
:1007EC0001DDAFF300800A4B0BB1AFF30080094B76
:1007FC0043B100F091F903681B699847002801DDAB
:10080C00AFF3008008BD00BF000000000000000036
:10081C00000000000000000008B5FFF7CDFFFFF757
:10082C00B5FD014B186008BD0C0400200548064AB4
:10083C0008B5121A054900F0EFFB054B054A1A6082
:10084C0008BD00BF004002400440024090130A085B
:10085C00004002401E1C279A002307B51A466FF071
:10086C0077010093FFF786FE03B05DF804FB0000F0
:10087C0007B543880A2B08D0502B0BD1094B1B68AA
:10088C004BB103B05DF804EB1847FFF7E5FF03B07D
:10089C005DF804FB00231A466FF077010093FFF715
:1008AC0069FEF4E79C000020002110B51148FFF709
:1008BC00EBFE114B1A68114B9A420CBF012200221D
:1008CC000F4B1A7001D0FFF7B1FFFFF757FD04462D
:1008DC0000F0B8FB0B4B13B12046AFF300800021A6
:1008EC000848FFF7B1FEBDE8104000210648FFF7AD
:1008FC0037BE00BFB9070A08004002401E1C279AE9
:10090C0098000020000000007D080A087047F8B528
:10091C000E46002400F10807051D17F8011D0A22D8
:10092C003046FFF704FFAF42044401D12046F8BD26
:10093C00002CF2D02E213046FFF7F6FE0444ECE7F3
:10094C0010B504461821FFF7A2FB204610BD00008D
:10095C0010B50446044B1122002140F8043B00F072
:10096C0069FB204610BD00BFC8110A080346074AA0
:10097C0010B543F8042B01F1100251F8044B9142CD
:10098C0043F8044BF9D10A781A7010BDC8110A0843
:10099C00024AC0E90021042202757047C8110A08F6
:1009AC0010B59DF8084044EA0324042344EA0244A9
:1009BC0044EA01644460037510BD000013B5044C97
:1009CC0004609DF810400094FFF7EAFF02B010BDE0
:1009DC00C8110A08417470477047704708B5002168
:1009EC00007CFFF78DFD40EAE07008BD08B50121E1
:1009FC00007CFFF785FD40EAE07008BD08B5007C7F
:100A0C00FFF776FD20EAE07008BD08B5007CFFF723
:100A1C0067FD20EAE07008BD38B50446007C0D4641
:100A2C00FFF766FD002801DC607C28B12946207C9C
:100A3C00FFF76EFD20EAE07038BD007CFFF770BD5B
:100A4C0010B504461421FFF722FB204610BD704759
:100A5C0010B54FF47A73044608460021C4E901131B
:100A6C00044B20742360012311466374FFF730FD9F
:100A7C00204610BDDC110A0810B5044614220021D2
:100A8C0000F0D8FA054B20466360054BE36040F25A
:100A9C00011323818123238210BD00BFD0000020CD
:100AAC00D101002030B50E4D87B001A8FFF7E4FF4F
:100ABC002978BFF35B8F11F001040ED12846FFF7A4
:100ACC00E8FA50B1214601AA0648FFF7C1FF2846B3
:100ADC00FFF7E4FA044800F099FA024807B030BD79
:100AEC00A0000020A8000020E5090A0810B5044663
:100AFC001422002100F09EFA054B20466360054B42
:100B0C00E36040F2011323818123238210BD00BFD7
:100B1C00520200205303002010B50E4C86B001A8E1
:100B2C00FFF7E4FF2378BFF35B8FDB070ED420467F
:100B3C00FFF7AFFA50B1012101AA0748FFF788FF70
:100B4C002046FFF7ABFA054800F060FA024806B001
:100B5C0010BD00BFA4000020BC0000205B0A0A08E6
:100B6C0070474174704708B5007CFFF757FC20EACA
:100B7C00E07008BD08B5007CFFF728FC20EAE070A7
:100B8C0008BD08B5007CFFF731FC40EAE07008BDF9
:100B9C0008B5007CFFF722FC40EAE07008BD007C41
:100BAC00FFF72CBC70B5467C04460D462EB1294689
:100BBC00207CBDE87040FFF701BC007CFFF72EFCE9
:100BCC000028F4DC304670BD10B504461421FFF744
:100BDC005EFA204610BD000010B54FF47A7304463F
:100BEC00084611460022C4E90123044B20742360FB
:100BFC0001236374FFF71AFC204610BD0C120A087F
:100C0C007047F8B5064615460C468F18BC4206D000
:100C1C00336830469B6814F8011B9847F6E7284662
:100C2C00F8BD0022007CFFF709BC0021007CFFF717
:100C3C000DBC0021007CFFF711BC0021007CFFF7EC
:100C4C0015BC0021007CFFF719BC10B5044614211B
:100C5C00FFF71DFA204610BD10B54FF47A73044609
:100C6C0008460021C4E90113034B1146236020748C
:100C7C00FFF714FC204610BD3C120A080022406805
:100C8C001146FFF799BCF0B5154689B011220E46F6
:100C9C000446002103A800F0CDF9284600F000FA24
:100CAC00002781B273682846009703AAFFF740FC1F
:100CBC0030B139462046FFF76BFE204609B0F0BD37
:100CCC00204603A9FFF752FEF7E7002240681146C1
:100CDC00FFF792BC002240681146FFF79DBC002232
:100CEC004068FFF791BC0022406881F00101FFF7DA
:100CFC007BBC002340681A461946FFF76DBC0022E6
:100D0C0040681146FFF748BC002202214068FFF7FB
:100D1C004BBC002340681A46FFF736BC0422024B3A
:100D2C005A60024A1A607047D403002064120A0801
:100D3C00002340681A46FFF727BC002202214068B6
:100D4C00FFF732BC002240681146FFF725BC002299
:100D5C0040681146FFF730BC002340681A4619461C
:100D6C00FFF732BC002340681A461946FFF734BC23
:100D7C0000214068FFF758BC00214068FFF75CBCBD
:100D8C000022406881F00101FFF72EBC0022406870
:100D9C00FFF73ABC002240681146FFF73DBC002229
:100DAC0040681146FFF728BC70B515468EB0044656
:100DBC0008A8FFF7CDFD1122002103A800F03AF995
:100DCC000026284600F06CF90A4B009681B25B684D
:100DDC00284603AAFFF7ACFB30B131462046FFF79B
:100DEC00D7FD20460EB070BD204603A9FFF7BEFD0F
:100DFC00F7E700BFD4030020024B034A1A6000221D
:100E0C005A607047DC030020A0120A08024B986855
:100E1C0008B1FFF7CBBA7047E8030020172870B56C
:100E2C00044601D9002070BDA0F10D03022B0BD993
:100E3C00012824D800F0C4F80021007CFFF726FB21
:100E4C0080F00100C0B2EEE7124E3178BFF35B8F39
:100E5C0011F001050DD13046FFF71BF948B12946B9
:100E6C000D48FFF719FC3046FFF718F90B4800F056
:100E7C00CDF8094B1878FFF723FB0028D2D1123C90
:100E8C00012C05D800F052F8007CFFF7BFFAD7E729
:100E9C000120C8E7E4030020E8030020190E0A082B
:100EAC00172838B504460D460AD8FF2908D0FFF795
:100EBC00B5FF28B129462046BDE83840FFF746BAB1
:100ECC0038BD38B504460D46FFF748FAFF2810D058
:100EDC00062804D84D2323FA00F0C30709D4204672
:100EEC00FFF79CFF28B129462046BDE83840FFF7A4
:100EFC003DBA38BD7047000070B5142504462A462B
:100F0C00002100F097F825808025074E28463146B1
:100F1C002581258200F078F831466060284600F083
:100F2C0073F8E060204670BDD4120A0830B50E4D3F
:100F3C0087B02978BFF35B8F11F0010411D12846DB
:100F4C00FFF7A7F868B101A8FFF7D6FF214601AA61
:100F5C000648FFF741FE2846FFF7A0F8044800F0CA
:100F6C0055F8024807B030BDF4030020F803002008
:100F7C00010F0A08002307B51A46194600930348C7
:100F8C00FFF71CFD03B05DF804FB00BF100400204C
:100F9C007047000070B514232025084E04460360EA
:100FAC00314685600561284600F02EF831466060B8
:100FBC00284600F029F8E060204670BDD4120A08DB
:100FCC0030B50E4D87B02978BFF35B8F11F001045B
:100FDC0011D12846FFF75DF868B101A8FFF7DAFFD9
:100FEC00214601AA0648FFF737FE2846FFF756F8B8
:100FFC00044800F00BF8024807B030BD280400206C
:10100C002C0400209D0F0A08FFF73FB8002301466F
:10101C001A46184600F04CB80A44914200F1FF33CE
:10102C0000D1704710B511F8014B914203F8014FF4
:10103C00F9D110BD03460244934200D1704703F826
:10104C00011BF9E738B5104B04461D68AB6BB3B9FF
:10105C001820FFF701FB0246A86320B942210B4B75
:10106C000B48FFF709FB0B490B4BC0E900130B4B6B
:10107C00002183600B2383810120C2E9040100223B
:10108C00AB6B1C615A6138BD08000020D5120A08F0
:10109C00EC120A080E33CDAB34126DE6ECDE050013
:1010AC00034613F8012B002AFBD1181A013870479C
:1010BC002DE9F843DFF8AC800646D8F800001F464F
:1010CC000D46914600F058F8274B1C6834B9274C54
:1010DC001C60274B13B11B68C4F8883063681F2B46
:1010EC0007DDD8F8000000F049F84FF0FF30BDE8FC
:1010FC00F8835EB3D4F8880088B91E4B23B9D8F8AE
:10110C00000000F03AF8F0E74FF48470FFF7A4FA0F
:10111C000028F4D00023C0E94033C4F88800012231
:10112C006368022E40F8239002FA03F200EB83016D
:10113C00D0F8003143EA0203C0F80031C1F88070E6
:10114C0002BFD0F804311343C0F804316368D8F8F7
:10115C0000005A1C0233626044F8235000F00EF871
:10116C000020C4E76C000020CC04002040040020C8
:10117C000000000065060A087047704770470000C1
:10118C001D000A085D000A0885000A0889000A0883
:10119C00000000006170700025592D256D2D25640F
:1011AC005425483A254D3A2553257A0061736374CA
:1011BC00696D650000000000000000001B090A08B2
:1011CC0019090A084D090A08000000000000000077
:1011DC00E7090A084D0A0A08250A0A08E9060A0856
:1011EC00170A0A08E9090A08F9090A08470A0A0845
:1011FC00090A0A08E1090A080000000000000000C2
:10120C006D0B0A08D50B0A08B10B0A08E9060A0887
:10121C00810B0A089D0B0A088F0B0A08AB0B0A08F6
:10122C006F0B0A08730B0A08000000000000000096
:10123C000D0C0A08570C0A082F0C0A080F0C0A0888
:10124C00370C0A083F0C0A08470C0A084F0C0A080E
:10125C0000000000000000001F0D0A08150D0A0810
:10126C000B0D0A08890C0A0875070A08FF0C0A08F6
:10127C007D0D0A08850D0A08F30C0A08EB0C0A0808
:10128C00E10C0A08D70C0A08930C0A0800000000AD
:10129C00000000003D0D0A08470D0A08510D0A0810
:1012AC005B0D0A08650D0A08710D0A087D0D0A0808
:1012BC00850D0A088D0D0A08990D0A08A10D0A085A
:1012CC00AB0D0A08B50D0A08005245454E54206D69
:1012DC00616C6C6F63207375636365656465640032
:1012EC002F6D6E742F776F726B73706163652F77D0
:1012FC006F726B73706163652F4743432D31302DD3
:10130C00706970656C696E652F6A656E6B696E735A
:10131C002D4743432D31302D706970656C696E65B6
:10132C002D34385F32303230313132345F31363037
:10133C00363138303634312F7372632F6E65776CDB
:10134C0069622F6E65776C69622F6C6962632F73AB
:10135C0074646C69622F72616E642E63000000000D
:10136C00C5060A0881070A0891070A08AD070A088A
:10137C00290D0A08050E0A08810F0A080000000052
:04138C00000000005D
:041390000000000059
:1013940007000000B8110A080C000020000000003B
:1013A4000000000000000000000000000000000039
:1013B4000000000000000000000000000000000029
:1013C4000000000000000000000000000000000019
:1013D4000000000000000000000000000000000009
:1013E40000000000000000000000000000000000F9
:1013F400000000000000000000000000D0040020F5
:10140400FFFFFFFF00000102030405060708090AA5
:101414000B0C0D0E0F101112131415161718191AA0
:081424001B1C1D1E1F202800E7
:04142C0078563412A8
:04000005080A001CC9
:00000001FF
