:02000004080AE8
:1000000000000A084C130A0800000600060005015B
:080010000402FD0800000000DD
:040018003C110A0885
:10001C0009480A4908B5884205D0094A824202D0EB
:10002C00121A00F0DBFF0748074A0021121A00F0F1
:10003C00E3FF064808BD00BF00000020B4120A0808
:10004C007000002070000020E1050020E105002078
:10005C0070B500F021FC0025054E064CA41BA4082D
:10006C00A54200D170BD56F8043B98470135F7E71F
:10007C0088120A08A4120A0800F014B808B500F097
:10008C0019F8BDE8084000F0BFBB00F0E5BA00F07D
:10009C00EBBA0078B0FA80F0400970470123037086
:1000AC0070470000024B0121188800F017BF00BFF9
:1000BC000000002010B5A44C0121208800F01FFF87
:1000CC004FF4617000F060FB0021208800F017FFF6
:1000DC00C82000F059FB0121208800F010FF4FF4DC
:1000EC00617000F051FB0021208800F008FFC8204F
:1000FC0000F04AFB0021208800F001FF4FF47A70D9
:10010C0000F042FB0121208800F0F9FE4FF49670BC
:10011C0000F03AFB0021208800F0F1FEC82000F02E
:10012C0033FB0021208800F0EAFE4FF47A7000F0D7
:10013C002BFB0121208800F0E2FE4FF4617000F0EF
:10014C0023FB0021208800F0DAFEC82000F01CFB05
:10015C000121208800F0D3FE4FF4967000F014FBC0
:10016C000021208800F0CBFEC82000F00DFB002100
:10017C00208800F0C4FE4FF47A7000F005FB0121DA
:10018C00208800F0BCFE4FF4967000F0FDFA0021C0
:10019C00208800F0B4FEC82000F0F6FA0121208877
:1001AC0000F0ADFE4FF4617000F0EEFA00212088F3
:1001BC0000F0A5FEC82000F0E7FA0021208800F02E
:1001CC009EFE4FF47A7000F0DFFA0121208800F0D7
:1001DC0096FE4FF4617000F0D7FA0021208800F0F1
:1001EC008EFEC82000F0D0FA0121208800F087FE96
:1001FC004FF4967000F0C8FA0021208800F07FFEC2
:10020C00C82000F0C1FA0121208800F078FE4FF4DC
:10021C00617000F0B9FA0021208800F070FEC8204F
:10022C0000F0B2FA0121208800F069FE4FF49670BC
:10023C0000F0AAFA0021208800F061FEC82000F02E
:10024C00A3FA0021208800F05AFE4FF47A7000F0D7
:10025C009BFA0121208800F052FE4FF4967000F0BA
:10026C0093FA0021208800F04AFEC82000F08CFA96
:10027C000121208800F043FE4FF4967000F084FAC0
:10028C000021208800F03BFEC82000F07DFA0121FF
:10029C00208800F034FE4FF4967000F075FA0021BF
:1002AC00208800F02CFEC82000F06EFA0121208876
:1002BC0000F025FE4FF4967000F066FA00212088BD
:1002CC0000F01DFEC82000F05FFA0021208800F02D
:1002DC0016FE4FF47A7000F057FA0121208800F0D6
:1002EC000EFE4FF4967000F04FFA0021208800F0BB
:1002FC0006FEC82000F048FA0021208800F0FFFD1F
:10030C004FF47A7000F040FA0121208800F0F7FDDC
:10031C004FF4617000F038FA0021208800F0EFFDF6
:10032C00C82000F031FA0121208800F0E8FD4FF4DC
:10033C00617000F029FA2088002100F0E0FDBDE892
:10034C001040C82000F020BA0000002008B5024B75
:10035C001B689B68019308BDB001060808B5024BE9
:10036C001B68DB68019308BDB001060808B5024B99
:10037C001B681B69019308BDB001060808B5024B48
:10038C001B685B68019308BD9C01060808B5024B0D
:10039C001B685B69019308BD9C01060808B5024BFC
:1003AC001B685B6C019308BDD001060808B5024BB5
:1003BC001B689B6C019308BDD001060808B5024B65
:1003CC001B689B69019308BDC401060808B5024B64
:1003DC001B685B6A019308BDC401060808B5024B93
:1003EC001B689B6A019308BDC401060808B5024B43
:1003FC001B68DB6A019308BDC401060808B5024BF3
:10040C001B681B6B019308BDC401060808B5024BA1
:10041C001B685B6B019308BDC401060808B5024B51
:10042C001B689B6B019308BDC401060808B5024B01
:10043C001B681B6C019308BDC401060808B5024B70
:10044C001B681B6E019308BDAC01060808B5024B76
:10045C001B685B6E019308BDAC01060808B5024B26
:10046C001B689B6E019308BDAC01060808B5024BD6
:10047C001B68DB6E019308BDAC01060808B5024B86
:10048C001B681B6F019308BDAC01060808B5024B35
:10049C001B685B6F019308BDAC01060808B5034BE4
:1004AC001B68D3F88030019308BD0000AC0106082E
:1004BC0008B5024B1B68DB69019308BDB401060843
:1004CC0008B5024B1B681B6A019308BDB4010608F2
:1004DC0008B5024B1B681B68019308BDD8010608C0
:1004EC0008B5024B1B681B69019308BDD8010608AF
:1004FC0008B5024B1B685B69019308BDD80106085F
:10050C0008B5024B1B689B69019308BDD80106080E
:10051C0008B5024B1B68DB69019308BDD8010608BE
:10052C0008B5024B1B681B6A019308BDD80106086D
:10053C0008B5024B1B689B6C019308BDC0010608F3
:10054C0008B5024B1B685B68019308BDA401060843
:10055C0008B5024B1B685B69019308BDA401060832
:10056C0008B5034B1B68D3F89030019308BD00000D
:10057C00A401060808B5034B1B68D3F89C30019303
:10058C0008BD0000A401060808B5024B1B685B6897
:10059C00019308BDC801060808B5024B1B689B688F
:1005AC00019308BDC801060808B5024B1B68DB683F
:1005BC00019308BDC801060808B5024B1B681B69EE
:1005CC00019308BDC801060808B5024B1B685B699E
:1005DC00019308BDC801060808B5024B1B689B694E
:1005EC00019308BDC801060808B5024B1B68DB69FE
:1005FC00019308BDC801060808B5024B1B681B6AAD
:10060C00019308BDC801060808B5024B1B681B6B9B
:10061C00019308BDC801060808B5024B1B685B6B4B
:10062C00019308BDC801060808B5024B1B681B6C7A
:10063C00019308BDC801060808B5024B1B685B6C2A
:10064C00019308BDC801060808B5024B1B68DB6B9B
:10065C00019308BDCC01060808B5024B1B681B684A
:10066C00019308BDA001060808B5024B1B685B6826
:10067C00019308BDA001060808B5024B1B685B6C12
:10068C00019308BDA001060870B5002604460D466E
:10069C0040F8086FFFF782FE28462570FFF708FF29
:1006AC002046666070BD000002220020044B1A60D8
:1006BC00044B054A1860988098719A60FFF740BF08
:1006CC007C000020700000200000FFFFF8B50646FB
:1006DC000D4600248F18BD420CD0336830469B6801
:1006EC0015F8011B9847031E01DB1C44F3E7002C93
:1006FC0008BF1C462046F8BD70B505460C4608469A
:10070C0049B100F0A5FC2B68024621462846BDE8FD
:10071C007040DB68184770BD03689B68184700235E
:10072C00012A98BF0A2230B58BB00C468DF82430C4
:10073C0009A92546B4FBF2F404FB1253DBB2092BD6
:10074C0094BF30333733DBB2AA4201F8013DF0D904
:10075C00FFF7D2FF0BB030BD002340681A46194694
:10076C00FFF732BF014B024A1A607047800000202D
:10077C0050110A08024B1A68024B1A60704700BFEE
:10078C0004000020840000200021FFF7E1BE0000DF
:10079C000022014B9A60704788000020014B1860C2
:1007AC00704700BF0800002008B5134B43B100F0A0
:1007BC0071F903681B699847002801DDAFF30080CD
:1007CC000E4B43B100F016FA03681B6998470028DA
:1007DC0001DDAFF300800A4B0BB1AFF30080094B86
:1007EC0043B100F091F903681B699847002801DDBB
:1007FC00AFF3008008BD00BF000000000000000047
:10080C00000000000000000008B5FFF7CDFFFFF767
:10081C00BDFD014B186008BD140500200548064AB3
:10082C0008B5121A054900F0D9FB054B054A1A60A8
:10083C0008BD00BF0040024004400240B0120A084C
:10084C00004002401E1C279A002307B51A466FF081
:10085C0077010093FFF78EFE03B05DF804FB0000F8
:10086C0007B543880A2B08D0502B0BD1094B1B68BA
:10087C004BB103B05DF804EB1847FFF7E5FF03B08D
:10088C005DF804FB00231A466FF077010093FFF725
:10089C0071FEF4E79C000020002110B51148FFF711
:1008AC00EBFE114B1A68114B9A420CBF012200222D
:1008BC000F4B1A7001D0FFF7B1FFFFF75FFD044635
:1008CC0000F0A2FB0B4B13B12046AFF300800021CC
:1008DC000848FFF7B9FEBDE8104000210648FFF7B5
:1008EC003FBE00BFA9070A08004002401E1C279A01
:1008FC0098000020000000006D080A08704710B531
:10090C000446182100F060FB204610BDF8B50E46D9
:10091C00002400F10807051D17F8011D0A223046B6
:10092C00FFF7FDFEAF42044401D12046F8BD002C78
:10093C00F2D02E213046FFF7EFFE0444ECE7000026
:10094C0010B50446044B1122002140F8043B00F082
:10095C0053FB204610BD00BF78110A080346074A16
:10096C0010B543F8042B01F1100251F8044B9142DD
:10097C0043F8044BF9D10A781A7010BD78110A08A3
:10098C00024AC0E9002104220275704778110A0856
:10099C0010B59DF8084044EA0324042344EA0244B9
:1009AC0044EA01644460037510BD000037B5044D82
:1009BC0005609DF818500095FFF7EAFF03B030BDB5
:1009CC0078110A08417470477047704708B50021C8
:1009DC00007CFFF795FD40EAE07008BD08B50121E9
:1009EC00007CFFF78DFD40EAE07008BD08B5007C87
:1009FC00FFF77EFD20EAE07008BD08B5007CFFF72C
:100A0C006FFD20EAE07008BD38B50446007C0D4649
:100A1C00FFF76EFD002801DC607C28B12946207CA4
:100A2C00FFF776FD20EAE07038BD007CFFF778BD5B
:100A3C0010B50446142100F0C7FA204610BD7047CB
:100A4C0010B54FF47A73044608460021C4E901132B
:100A5C00044B20742360012311466374FFF738FDA7
:100A6C00204610BD8C110A0810B504461422002132
:100A7C0000F0C2FA054B20466360054BE36040F280
:100A8C00011323818123238210BD00BFD0000020DD
:100A9C00D101002030B50E4D87B001A8FFF7E4FF5F
:100AAC002978BFF35B8F11F001040ED12846FFF7B4
:100ABC00F0FA50B1214601AA0648FFF7C1FF2846BB
:100ACC00FFF7ECFA044800F083FA024807B030BD97
:100ADC00A0000020A8000020D5090A0810B5044683
:100AEC001422002100F088FA054B20466360054B68
:100AFC00E36040F2011323818123238210BD00BFE8
:100B0C00520200205303002010B50E4C86B001A8F1
:100B1C00FFF7E4FF2378BFF35B8FDB070ED420468F
:100B2C00FFF7B7FA50B1012101AA0748FFF788FF78
:100B3C002046FFF7B3FA054800F04AFA024806B01F
:100B4C0010BD00BFA4000020BC0000204B0A0A0806
:100B5C00704741747047704708B5007CFFF766FC1E
:100B6C0020EAE07008BD08B5007CFFF737FC20EAEE
:100B7C00E07008BD08B5007CFFF740FC40EAE0706F
:100B8C0008BD08B5007CFFF731FC40EAE07008BDF9
:100B9C00007CFFF73BBC70B5467C04460D462EB17D
:100BAC002946207CBDE87040FFF710BC007CFFF7A5
:100BBC003DFC0028F4DC304670BD10B50446142111
:100BCC0000F002FA204610BD4FF0000C10B50446A0
:100BDC00084611464FF47A72C4E901C2044A2074E3
:100BEC002260012262741A46FFF7E8FB204610BD12
:100BFC00BC110A0838B50C4D2978BFF35B8F11F086
:100C0C0001040FD12846FFF744FA58B12146074B8F
:100C1C00074A0848FFF7D8FF2846FFF73FFA06486F
:100C2C0000F0D6F9034838BDD40300205C04002042
:100C3C00D8030020E0040020630B0A087047F8B5C5
:100C4C00064615460C468F18BC4206D03368304613
:100C5C009B6814F8011B9847F6E72846F8BD00225C
:100C6C00007CFFF7EBBB0021007CFFF7EFBB002102
:100C7C00007CFFF7F3BB0021007CFFF7F7BB0021E2
:100C8C00007CFFF7FBBB10B50446142100F09CF967
:100C9C00204610BD10B54FF47A7304460846002167
:100CAC00C4E90113034B114623602074FFF7F6FBD4
:100CBC00204610BDEC110A08002240681146FFF7CF
:100CCC007BBCF0B5154689B011220E4604460021B6
:100CDC0003A800F091F9284600F0BAF9002781B278
:100CEC0073682846009703AAFFF722FC30B13946F7
:100CFC002046FFF745FE204609B0F0BD204603A96B
:100D0C00FFF72CFEF7E7002240681146FFF774BC92
:100D1C00002240681146FFF77FBC00224068FFF7B5
:100D2C0073BC0022406881F00101FFF75DBC002319
:100D3C0040681A461946FFF74FBC0022406811461E
:100D4C00FFF72ABC002202214068FFF72DBC0023CC
:100D5C0040681A46FFF718BC0422024B5A60024A3C
:100D6C001A607047F404002014120A08002340682B
:100D7C001A46FFF709BC002202214068FFF714BC99
:100D8C00002240681146FFF707BC0022406811465C
:100D9C00FFF712BC002340681A461946FFF714BC33
:100DAC00002340681A461946FFF716BC002140681C
:100DBC00FFF73ABC00214068FFF73EBC00224068B8
:100DCC0081F00101FFF710BC00224068FFF71CBC4A
:100DDC00002240681146FFF71FBC002240681146F4
:100DEC00FFF70ABC70B515468EB0044608A8FFF78D
:100DFC00A7FD1122002103A800F0FEF800262846CA
:100E0C0000F026F90A4B009681B25B68284603AACB
:100E1C00FFF78EFB30B131462046FFF7B1FD20467F
:100E2C000EB070BD204603A9FFF798FDF7E700BF91
:100E3C00F4040020024B034A1A6000225A607047E7
:100E4C00FC04002050120A08024B986808B1FFF706
:100E5C00ADBA704708050020172870B5044601D9B3
:100E6C00002070BDA0F10D03022B0BD9012824D852
:100E7C0000F086F80021007CFFF708FB80F00100F1
:100E8C00C0B2EEE7124E3178BFF35B8F11F0010563
:100E9C000DD13046FFF7FDF848B129460D48FFF754
:100EAC00F3FB3046FFF7FAF80B4800F091F8094BCA
:100EBC001878FFF705FB0028D2D1123C012C05D87D
:100ECC00FFF798FE007CFFF7A9FAD7E70120C8E7E7
:100EDC000405002008050020550E0A08172838B50F
:100EEC0004460D460AD8FF2908D0FFF7B5FF28B1F4
:100EFC0029462046BDE83840FFF728BA38BD38B53A
:100F0C0004460D46FFF72AFAFF2810D0062804D80D
:100F1C004D2323FA00F0C30709D42046FFF79CFFAA
:100F2C0028B129462046BDE83840FFF71FBA38BD26
:100F3C00002307B51A46194600930348FFF736FD00
:100F4C0003B05DF804FB00BF1805002070470000DB
:100F5C00002370B5202543801423084E04460380DB
:100F6C00314685600561284600F030F831466060F6
:100F7C00284600F02BF8E060204670BD84120A0869
:100F8C0030B50E4D87B02978BFF35B8F11F001049B
:100F9C0011D12846FFF77DF868B101A8FFF7D8FFFB
:100FAC00214601AA0648FFF775FE2846FFF776F89A
:100FBC00044800F00DF8024807B030BD30050020A1
:100FCC0034050020590F0A08FFF761B8FFF75DB828
:100FDC00002301461A46184600F042B80A449142D2
:100FEC0000F1FF3300D1704710B511F8014B91425D
:100FFC0003F8014FF9D110BD03460244934200D1CE
:10100C00704703F8011BF9E738B50D4B04461D6812
:10101C00AB6B7BB91820FFF71FFB0A4A0A4BA8637E
:10102C00C0E90023094B012283600B238381002339
:10103C00C0E904230022AB6B1C615A6138BD00BFB0
:10104C00080000200E33CDAB34126DE6ECDE05004B
:10105C00034613F8012B002AFBD1181A01387047EC
:10106C002DE9F843DFF8BC800646D8F800001F468F
:10107C000D46914600F058F8264B1C6834B9264CA6
:10108C001C60264B13B11B68C4F8883063681F2B97
:10109C0007DDD8F8000000F049F84FF0FF30BDE84C
:1010AC00F8835EB3D4F8880088B91D4B23B9D8F8FF
:1010BC00000000F03AF8F0E74FF48470FFF7CCFA38
:1010CC000028F4D00023C0E94033C4F88800012282
:1010DC006368022E40F8239002FA03F200EB8301BE
:1010EC00D0F8003143EA0203C0F80031C1F8807037
:1010FC0002BFD0F804311A43C0F804216368D8F851
:10110C0000005A1C0233626044F8235000F00EF8C1
:10111C000020C4E7D4050020480500200000000092
:10112C0065060A086C000020704770477047000085
:10113C001D000A085D000A0885000A0889000A08D3
:10114C00000000006170700025592D256D2D25645F
:10115C005425483A254D3A2553257A00617363741A
:10116C00696D6500000000000000000019090A0804
:10117C0009090A080B090A08000000000000000019
:10118C00D7090A083D0A0A08150A0A08D9060A08E6
:10119C00070A0A08D9090A08E9090A08370A0A08D5
:1011AC00F9090A08D1090A08000000000000000033
:1011BC005D0B0A08C70B0A08A30B0A08D9060A0814
:1011CC00730B0A088F0B0A08810B0A089D0B0A087F
:1011DC005F0B0A08650B0A08000000000000000005
:1011EC00490C0A08930C0A086B0C0A084B0C0A08E9
:1011FC00730C0A087B0C0A08830C0A088B0C0A086F
:10120C0000000000000000005B0D0A08510D0A08E8
:10121C00470D0A08C50C0A0865070A083B0D0A08A1
:10122C00B90D0A08C10D0A082F0D0A08270D0A0866
:10123C001D0D0A08130D0A08CF0C0A080000000047
:10124C0000000000790D0A08830D0A088D0D0A08AC
:10125C00970D0A08A10D0A08AD0D0A08B90D0A0868
:10126C00C10D0A08C90D0A08D50D0A08DD0D0A08BA
:10127C00E70D0A08F10D0A0800000000B5060A087F
:10128C0071070A0881070A089D070A08650D0A08F4
:10129C00410E0A083D0F0A08000000000000000083
:0412AC00000000003E
:0412B000000000003A
:1012B4000700000068110A080C000020000000006C
:1012C400000000000000000000000000000000001A
:1012D400000000000000000000000000000000000A
:1012E40000000000000000000000000000000000FA
:1012F40000000000000000000000000000000000EA
:1013040000000000000000000000000000000000D9
:10131400000000000000000000000000D9050020CB
:10132400FFFFFFFF00000102030405060708090A86
:101334000B0C0D0E0F101112131415161718191A81
:081344001B1C1D1E1F202800C8
:04134C007856341289
:04000005080A001CC9
:00000001FF
